:020000040800F2
:10000000C0060020F50100082507000829060008A1
:1000100021070008D9040008C116000800000000EC
:10002000000000000000000000000000E1090008DE
:10003000FD04000800000000CD070008FF0A0008CA
:100040000F0200080F0200080F0200080F0200084C
:100050000F0200080F0200080F0200080F0200083C
:100060000F0200080F0200080F0200080F0200082C
:100070000F0200080F0200080F0200080F0200081C
:100080000F0200080F0200080F0200080F0200080C
:100090000F0200080F0200080F0200080F020008FC
:1000A0000F020008D90B00080F0200080F02000819
:1000B000110C00080F020008890D00080F0200084B
:1000C0000F0200080F0200080F0200080F020008CC
:1000D0000F0200080F0200080F0200080F020008BC
:1000E0000F0200080F0200080F02000800000000C5
:1000F0000000000000000000000000000000000000
:1001000000000000000000000F0200080F020008BD
:100110000F0200080F0200080F0200080F0200087B
:100120000F0200080F0200080F0200080F0200086B
:100130000F0200080F0200080F0200080F0200085B
:100140000F0200080F0200080F0200080F0200084B
:1001500000F002F800F03FF80AA090E8000C82449A
:100160008344AAF10107DA4501D100F034F8AFF277
:10017000090EBAE80F0013F0010F18BFFB1A43F085
:10018000010318472417000044170000103A24BF49
:1001900078C878C1FAD8520724BF30C830C144BFEC
:1001A00004680C607047000000230024002500262E
:1001B000103A28BF78C1FBD8520728BF30C148BFCA
:1001C0000B607047782900F07780002070471FB5DA
:1001D0001FBD10B510BD00F02FF91146FFF7F7FF56
:1001E00001F028FB00F04DF903B4FFF7F2FF03BC68
:1001F00001F076FA0948804709480047FEE7FEE724
:10020000FEE7FEE7FEE7FEE7FEE7FEE7FEE7FEE7C6
:1002100004480549054A064B70470000010B0008D9
:1002200051010008C0000020C0060020C0020020CC
:10023000C0020020704700000FB4044910B503AAA3
:10024000029800F0C3F810BC5DF814FB1C000020FD
:100250002DE9F0410E460446002020622046E16868
:10026000884730B3252805D0D4E901219047206A7A
:10027000401CF2E7E168204600278847050018D0B7
:10028000A5F14100192802D820354FF40067324605
:10029000294620462760FFF795FF40B1012804D08A
:1002A000F61D26F007060836D8E7361DD6E728469D
:1002B000DAE7206ABDE8F08170B504460D462146B4
:1002C0001068AFF300802188090502D50F4A7A44EF
:1002D00002E00E4A7A440E32002104F1240305E0C4
:1002E00000F00F060009965D5E54491C0028F7D106
:1002F00020780023000704D5702D02D009B1022315
:1003000011322046BDE8704000F006B8AE1500007E
:1003100070477047704770472DE9F0470D46994682
:100320009246044600F124080168880604D5E06975
:1003300021F01001216000E00120A84201DD471BEF
:1003400000E00027A1697A1902EB0900081AA061F0
:100350002078C00602D42046AFF30080002608E0D3
:10036000D4E901211AF806009047206A401C761C47
:1003700020624E45F4DB2078C0060AD52046AFF354
:10038000008006E0D4E9012130209047206A401C1B
:100390002062381EA7F10107F4DC07E0D4E901214F
:1003A00018F805009047206A401C2062281EA5F11D
:1003B0000105F3DC2046AFF300802078000602D56B
:1003C0000220BDE8F0870120FBE70000074B70B575
:1003D0000D467B4400F01DF80446284600F008F85E
:1003E00010B14FF0FF3070BD204670BD8F1300007C
:1003F000007B00F080007047004870475C000020E0
:10040000000001FF000003FF01694A1C0261087837
:10041000704700B58FB0CDE9013100210591054944
:100420007944CDE9031011466846FFF711FF0FB07C
:1004300000BD0000E5FFFFFF7546FFF7DDFFAE469C
:1004400005006946534620F00700854618B020B5E0
:10045000FFF7DEFEBDE820404FF000064FF000073A
:100460004FF000084FF0000B21F00701AC46ACE85C
:10047000C009ACE8C009ACE8C009ACE8C0098D46C9
:10048000704710B50446AFF300802046BDE8104029
:10049000FFF7AABE10B54FF4E15140F2E73000F08B
:1004A00057FB4FF4E1514FF6FF7000F007FC10BD11
:1004B00010B5012000F0C8F8482001F015F900F04F
:1004C00032F94FF4E13001F0B5F800F0D5F8FFF75C
:1004D000E1FF012010BD000004E002E002A0FFF7F0
:1004E000ABFEFBE7F9E700004275734661756C747B
:1004F0005F48616E646C65720D0A000070472DE9FB
:10050000F041024600250026002000230024002799
:1005100091F803C00CF00F0591F803C00CF0100C1B
:10052000BCF1000F03D091F802C04CEA050591F828
:1005300000C0BCF1000F31D0146800202BE04FF058
:10054000010C0CFA00F3B1F800C00CEA03069E425D
:1005500020D183004FF00F0C0CFA03F7BC4305FACF
:1005600003FC4CEA040491F803C0BCF1280F06D147
:100570004FF0010C0CFA00FCC2F814C00AE091F82C
:1005800003C0BCF1480F05D14FF0010C0CFA00FC80
:10059000C2F810C0401C0828D1D31460B1F800C0C4
:1005A000BCF1FF0F34DD546800202EE000F1080C90
:1005B0004FF0010808FA0CF3B1F800C00CEA03068A
:1005C0009E4221D183004FF00F0C0CFA03F7BC437D
:1005D00005FA03FC4CEA040491F803C0BCF1280FAF
:1005E00005D100F1080C08FA0CF8C2F8148091F853
:1005F00003C0BCF1480F07D100F1080C4FF001080F
:1006000008FA0CF8C2F81080401C0828CED35460B9
:10061000BDE8F0810246002093680B400BB1012039
:1006200000E000207047000002E002A0FFF704FE97
:10063000FBE70000486172644661756C745F486155
:100640006E646C65720D0A0001464906084A92699B
:1006500042F00102064B9A61064A526822F0E062BB
:10066000044B5A601A4652680A435A6070470000A9
:10067000001002400000014008B501213C2000F0BC
:10068000C7F83F20ADF8000004208DF8030069464C
:100690002048FFF734FF1F20ADF8000004208DF83C
:1006A000030069461C48FFF72AFF0320ADF800004D
:1006B00004208DF8030069461848FFF720FF4FF427
:1006C0001070ADF8000010208DF8030003208DF8A5
:1006D000020069460F48FFF712FF4FF40140ADF8E2
:1006E000000010208DF8030003208DF802006946F9
:1006F0000948FFF704FF4FF40670ADF80000102022
:100700008DF8030003208DF8020069460348FFF7C7
:10071000F6FE08BD0010014000080140000C014039
:1007200000BFFEE7704710B54FF4A06000F03AF844
:1007300010BD000070B5002100230F22C47804B35F
:10074000154C246804F4E064C4F5E064210AC1F1A6
:100750000403CA40447804FA03F184781440214326
:1007600009010E4C0678A155047804F01F050124F8
:10077000AC4005786D11AD0005F1E025C5F80041EC
:1007800009E0047804F01F050124AC40044D06780C
:10079000761145F8264070BD0CED00E000E400E065
:1007A00080E100E002490143024A11607047000005
:1007B0000000FA050CED00E0024A0A400243024B39
:1007C0001A60704780FFFF1F08ED00E070470000CF
:1007D00029B1064AD2690243044BDA6104E0034AB4
:1007E000D2698243014BDA61704700000010024079
:1007F00029B1064A12690243044B1A6104E0034A14
:1008000012698243014B1A617047000000100240D8
:1008100029B1064A92690243044B9A6104E0034AF3
:1008200092698243014B9A617047000000100240B8
:1008300029B1064AD2680243044BDA6004E0034A55
:10084000D2688243014BDA6070470000001002401A
:100850002DE9F0410021002200250023002600247C
:1008600000278C46DFF86081D8F8048008F00C017E
:1008700021B1042907D0082959D109E0DFF84C81BA
:10088000C0F8008058E0DFF84881C0F8008053E0ED
:10089000DFF83481D8F8048008F47012DFF828817A
:1008A000D8F8048008F48035920C0D2A01D0921CEF
:1008B00000E0062235B9DFF81C8102FB08F8C0F819
:1008C000008033E0DFF80081D8F82C8008F480360F
:1008D000DFF8F480D8F82C8008F00F0808F1010444
:1008E00046B9DFF8EC80B8FBF4F808FB02F8C0F872
:1008F00000801BE0DFF8D080D8F82C80C8F3031804
:1009000008F10107DFF8C080D8F82C80C8F303286D
:1009100008F1020CDFF8B880B8FBF7F808FB0CF818
:10092000B8FBF4F808FB02F8C0F8008004E0DFF838
:100930009C80C0F8008000BF00BFDFF88C80D8F832
:10094000048008F0F0010909DFF88C8018F8013004
:10095000D0F8008028FA03F8C0F80480DFF8688037
:10096000D8F8048008F4E061090ADFF86C8018F810
:100970000130D0F8048028FA03F8C0F80880DFF8C6
:100980004880D8F8048008F46051C90ADFF848802C
:1009900018F80130D0F8048028FA03F8C0F80C8069
:1009A000DFF82480D8F8048008F44041890BDFF890
:1009B0002C8018F80130D0F80C80B8FBF3F8C0F8A0
:1009C0001080BDE8F08100000010024000127A00A3
:1009D000001BB70000093D0020000020300000206F
:1009E000704710B500F002F810BD00000CB50020F3
:1009F000019000903448006840F48030324908602B
:100A000000BF3148006800F4003000900198401C9D
:100A10000190009818B90198B0F5A06FF1D12A485B
:100A2000006800F4003010B10120009001E00020C7
:100A300000900098012844D12448006840F010003C
:100A4000224908600846006820F003000860084654
:100A5000006840F0020008601B4840681A4948607E
:100A60000846406848600846406840F48060486036
:100A70000846406820F47C1048600846406840F40E
:100A8000881048600846006840F08070086000BF29
:100A90000D48006800F000700028F9D00A4840684E
:100AA00020F00300084948600846406840F0020012
:100AB000486000BF0448406800F00C000828F9D1E5
:100AC00001E000BFFEE70CBD001002400020024024
:100AD00070B506460D4600240821304600F042FA63
:100AE000304600F043FB4419B4F5803F01D3A4F530
:100AF0008034A1B2304600F0C4FC204670BD70477F
:100B000010B51048006840F001000E490860084622
:100B100040680D4908400B494860084600680B4989
:100B20000840084908600846006820F480200860F2
:100B30000846406820F4FE00486000208860FFF707
:100B400050FF10BD001002400000FFF8FFFFF6FE4E
:100B50007FB505460C460121C802FFF759FE1D4826
:100B600000F021FB1B4800F00DFAADF80850ADF87D
:100B700004400020ADF80A00ADF806008DF80C0026
:100B800001A9144800F082FC0021124800F07BFC0F
:100B90000121104800F0E6F900210E4800F0D6F9D6
:100BA000012211460B4800F0F5FA19208DF80000DB
:100BB00002208DF8010003208DF8020001208DF83D
:100BC00003006846FFF7B6FD0121024800F0CDF9A9
:100BD0007FBD0000002C014010B50121054800F048
:100BE000C8FA30B10121034800F0BCF902A0FFF7B8
:100BF00023FB10BD002C014054494D315F55505F1F
:100C000049525148616E646C65720D0A0000000023
:100C100010B50821C80600F0ACFA002847D008211A
:100C2000C80600F09FF909218807FFF751FF01204E
:100C30001F49087048701F480078401CC0B21D4909
:100C400008700A2807DD0020087001201849887004
:100C500001211748C170184801780078401C164AD5
:100C60001070632923DB0020114608700120104911
:100C7000087101210E4841718079401C0C4988712E
:100C8000084680790A2803DB002088710120C8719A
:100C900007480089401C064908810846008949899F
:100CA000884204DB0020024908810120087310BD3E
:100CB0004C000020130000201200002030B589B045
:100CC00005460C4601210846FFF782FDADF81C5091
:100CD000ADF818400020ADF81E00ADF81A0006A9C6
:100CE0004FF0804000F0D2FB0020ADF80400ADF8DA
:100CF000060041F26F70ADF80A000220ADF80C005A
:100D000001A9400700F056FA00214FF0804000F0A2
:100D10009DFA01A94FF0804000F0A2FA00214FF0A7
:100D2000804000F0EFFA01A94FF0804000F0F8FA9F
:100D300000214FF0804000F050FB0821C80600F071
:100D400011F901220821C80600F024FA01A94FF088
:100D5000804000F04BFB00214FF0804000F084FB0E
:100D60001C208DF8140003208DF8150001208DF84B
:100D700016008DF8170005A8FFF7DCFC0121880795
:100D800000F0F3F809B030BD10B50121694800F05A
:100D9000F0F918B30121674800F0E4F866480078DC
:100DA00000F08000D0B16448007820F01000624963
:100DB00008700846007800F00F0020B90846007857
:100DC00040F0400008705C48007800F00F000828F0
:100DD00005DA59480078401C574908700AE056481F
:100DE000007820F08000544908700846007800F030
:100DF000F000087008214F4800F0BBF9002816D019
:100E000008214C4800F0AEF84C48006800F48070AF
:100E100070B10221474800F0D3FA0021454800F0A4
:100E200032FB4548007840F010004349087080E0EC
:100E300040483C3000884249088000213D4800F08D
:100E4000BFFA3D48007800F01000102871D13A48F0
:100E5000007800F08000802844D139480088B0F53F
:100E6000967F0DDD36480088B0F5487F08DA3548B2
:100E7000006840003349086008460068086052E096
:100E80002F480088B0F5966F0FDD2D480088B0F52B
:100E9000E16F0ADA2B48006840002A4908600846DA
:100EA000006840F0010008603DE025480088B0F58A
:100EB000FA6F38DD2248008840F62821884232DA6D
:100EC00021480078401C2049087008460078FF2817
:100ED00001DBFF2008701848007800F0F000164988
:100EE000087020E01648008841F2680188421ADD47
:100EF0001348008841F25C21884214DA0E480078D9
:100F000040F080000C49087000200F490870012251
:100F10001146084800F03EF90121064800F022F889
:100F20000020084908600448007820F010000249B9
:100F3000087010BD0008004004000020080C0140AB
:100F400006000020080000200C00002021B10288CB
:100F500042F08002028004E002884FF67F731A405C
:100F600002807047CA430282704721B1028842F072
:100F70000102028004E002884FF6FE731A400280EC
:100F80007047000010B504466848844208D101212A
:100F9000C014FFF74DFC0021E014FFF749FCC4E04A
:100FA000B4F1804F08D101210846FFF721FC002150
:100FB0000120FFF71DFCB8E05D48844208D1012103
:100FC0000220FFF715FC00210220FFF711FCACE026
:100FD0005848844208D101210420FFF709FC002170
:100FE0000420FFF705FCA0E05348844208D101210A
:100FF0000820FFF7FDFB00210820FFF7F9FB94E034
:101000004E48844208D101211020FFF7F1FB002156
:101010001020FFF7EDFB88E04948844208D1012108
:101020002020FFF7E5FB00212020FFF7E1FB7CE01B
:101030004448844208D101214014FFF7F9FB002104
:101040006014FFF7F5FB70E03F48844209D10121AD
:10105000C804FFF7EDFB00214FF40020FFF7E8FB89
:1010600063E03A48844209D101210805FFF7E0FB1B
:1010700000214FF48010FFF7DBFB56E03448844238
:1010800009D101214805FFF7D3FB00214FF40010DF
:10109000FFF7CEFB49E02F48844208D101214020D0
:1010A000FFF7A6FB00214020FFF7A2FB3DE02A4806
:1010B000844208D101218020FFF79AFB0021802083
:1010C000FFF796FB31E02548844208D101218015C5
:1010D000FFF78EFB0021A015FFF78AFB25E02048D3
:1010E000844209D101210804FFF7A2FB00214FF43B
:1010F0008030FFF79DFB18E01A48844209D1012196
:101100004804FFF795FB00214FF40030FFF790FBF8
:101110000BE01548844208D101218804FFF788FBC1
:1011200000214FF48020FFF783FB10BD002C01400D
:101130000004004000080040000C00400010004087
:101140000014004000340140004C014000500140B8
:101150000054014000180040001C004000200040E6
:101160000040014000440140004801400146888C95
:10117000704730B50246002000230024158A05EA96
:101180000103958905EA010413B10CB1012000E0C7
:10119000002030BD1AB183890B43838102E083892B
:1011A0008B438381704701894FF6F87211400181AA
:1011B0007047000070B5002400220023058C4FF614
:1011C000FE7635400584028C8388048B4FF68F753C
:1011D0002C40B51E2C400D882C43751E2A400D89CD
:1011E0002A434D882A43144DA8420BD0134DA842E0
:1011F00008D0134DA84205D0124DA84202D0124D7E
:10120000A84213D14FF6F7752A404D892A434FF66D
:10121000FB752A408D882A434FF6FF652B404FF619
:10122000FF552B408D892B43CD892B43838004832D
:10123000CD888586028470BD002C014000340140B9
:101240000040014000440140004801400A4600219E
:10125000018B4FF6F773194011430183704700006B
:1012600070B5002400220023058C4FF6EF76354040
:101270000584028C8388048B48F6FF752C404FF65A
:10128000FF452C400D884FF6FF7606EA05252C43D6
:101290004FF6DF752A400D8906EA05152A434D8869
:1012A00006EA05152A43154DA84202D0144DA8425E
:1012B0001DD14FF67F752A404D894FF6FF7606EA1D
:1012C00005152A434FF6BF752A408D8806EA051595
:1012D0002A434FF6FF352B404FF2FF752B408D8987
:1012E00006EA85052B43CD8906EA85052B438380D5
:1012F0000483CD880587028470BD0000002C014066
:10130000003401400A460021018B4FF2FF7319405F
:101310004FF6FF7303EA022319430183704700006D
:1013200070B5002400220023058C4FF6FF6635407F
:101330000584028C8388848B4FF68F752C404FF682
:10134000FC752C400D882C434FF6FF552A400D8923
:101350004FF6FF7606EA05252A434D8806EA05255D
:101360002A43154DA84202D0144DA8421DD14FF278
:10137000FF752A404D894FF6FF7606EA05252A4378
:101380004FF6FF352A408D8806EA05252A434EF69A
:10139000FF752B404DF6FF752B408D8906EA05152C
:1013A0002B43CD8906EA05152B4383808483CD88A2
:1013B0008587028470BD0000002C0140003401408C
:1013C0000A460021018C4FF6FF5319404FF6FF7378
:1013D00003EA02231943018470470A460021818BE6
:1013E0004FF6F773194011438183704770B500229F
:1013F00000230024058C4EF6FF7635400584038CCF
:101400008488828B48F6FF752A404FF6FF452A40B4
:101410000D884FF6FF7606EA05252A434DF6FF753F
:101420002B400D8906EA05352B434D8806EA053524
:101430002B430B4DA84202D00A4DA84208D14BF6CF
:10144000FF752C408D894FF6FF7606EA85152C43F3
:1014500084808283CD88A0F84050038470BD000052
:10146000002C0140003401400A460021818B4FF2DC
:10147000FF7319404FF6FF7303EA02231943818378
:10148000704781877047818470470000002202887E
:101490001D4B98420ED01D4B98420BD0B0F1804F9F
:1014A00008D01B4B984205D01A4B984202D01A4BD9
:1014B000984204D14FF68F731A404B881A43174B4A
:1014C000984207D0164B984204D04FF6FF431A407B
:1014D000CB881A4302808B8883850B8803850A4B4F
:1014E00098420BD0094B984208D00E4B984205D039
:1014F0000D4B984202D00D4B984201D10B7A0386D6
:101500000123838270470000002C01400034014019
:101510000004004000080040000C004000100040A3
:1015200000140040004001400044014000480140D8
:1015300001F40072B2F5007F00D100BFCA430280FF
:10154000704721B1828942F40052828104E082898D
:101550004DF6FF731A408281704700002DE9F04775
:1015600086B005460E460024A24600BFA1460027CD
:10157000B08900B100BF2F462C8A4CF6FF700440A2
:10158000F08804432C82AC894EF6F3100440B088F6
:1015900031890843718908430443AC81AC8A4FF612
:1015A000FF400440B0890443AC8201A8FFF750F922
:1015B0001F48874202D1DDF810A001E0DDF80CA041
:1015C000A88900F4004040B10AEBCA0000EB0A1001
:1015D00031684900B0FBF1F807E00AEBCA0000EB04
:1015E0000A1031688900B0FBF1F86420B8FBF0F014
:1015F00004012009642101FB1089A88900F400403E
:1016000040B1322000EBC900B0FBF1F000F0070060
:10161000044308E0322000EB09106421B0FBF1F034
:1016200000F00F0004432C8106B0BDE8F0870000F5
:101630000038014010B586B0044601213020FFF784
:10164000E7F801210805FFF7C3F84FF48050ADF823
:10165000140018208DF8170003208DF8160005A936
:101660001348FEF74CFF0420ADF8140018208DF845
:10167000170005A90F48FEF742FF01940020ADF8BE
:101680000800ADF80A00ADF80C00ADF810000C2011
:10169000ADF80E0001A90848FFF760FF4021074898
:1016A000FFF746FF01210448FFF74BFF06B010BDCE
:1016B0000010014000140140005000400044004070
:1016C00004E002E002A0FEF7B7FDFBE7F9E7000047
:1016D00055736167654661756C740D0A0000000002
:1016E000014600BF002070474FF0E021096921F05A
:1016F00004014FF0E0221161C21700EB5272C2F3F5
:10170000C702074B1A701946097801EB4102C2EB78
:10171000C1114FF6FF7202EAC101024A11807047FF
:10172000140000201600002001460D4A12884A438A
:101730004FF0E0235A6100229A6101221A6100BF32
:101740004FF0E022106900F001021AB100F480327B
:10175000002AF5D000224FF0E0231A619A61704709
:101760001600002010B50A46002106E04B1C99B275
:101770004FF6FF73994200DB05E0054B1B8803F031
:101780008003002BF2D000BFC3B2014CA38010BD78
:101790000050004070B5002402212448FEF73AFFB3
:1017A000054604212248FEF735FF45EA400502219F
:1017B0001F48FEF72FFF45EA800504211B48FEF76E
:1017C00029FF45EAC000044308211948FEF722FF1B
:1017D000054601211648FEF71DFF45EA4005082190
:1017E0001248FEF717FF45EA800501210F48FEF772
:1017F00011FF45EAC00044EA001420210C48FEF71E
:1018000009FF054610210A48FEF704FF45EA400596
:1018100010210648FEF7FEFE45EA800044EA002457
:1018200040F2FF704440204670BD000000080140B7
:101830000010014000214FF00060FEF7BDFFFEF7F1
:1018400037FE10E0FFF7A6FF074908604FF47A70F3
:10185000FFF76AFF0448016804A0FEF7EDFC0749A2
:10186000096948688047EDE7000000206B65792032
:101870003D20307825780D0A00000000340000205B
:1018800030313233343536373839414243444546B6
:1018900040305800303132333435363738396162B0
:1018A0006364656640307800C818000800000020B6
:1018B000340000008C010008FC18000834000020EF
:1018C0008C060000A80100080000000000000000D5
:1018D000000000000000FF00000000000000000009
:1018E00000000000000000000000000001020304EE
:0C18F000010203040607080902040608B0
:04000005080001519D
:00000001FF
