:020000040800F2
:1000000090060020F1010008FD030008D903000854
:10001000F9030008A1030008ED0C0008000000002F
:10002000000000000000000000000000FD070008C4
:10003000C503000800000000FF030008ED080008E9
:100040000B0200080B0200080B0200080B0200085C
:100050000B0200080B0200080B0200080B0200084C
:100060000B0200080B0200080B0200080B0200083C
:100070000B0200080B0200080B0200080B0200082C
:100080000B0200080B0200080B0200080B0200081C
:100090000B0200080B0200080B0200080B0200080C
:1000A0000B0200080B0200080B0200080B020008FC
:1000B0000B0200080B020008410900080B020008AF
:1000C0000B0200080B0200080B0200080B020008DC
:1000D0000B0200080B0200080B0200080B020008CC
:1000E0000B0200080B0200080B02000800000000D1
:1000F0000000000000000000000000000000000000
:1001000000000000000000000B0200080B020008C5
:100110000B0200080B0200080B0200080B0200088B
:100120000B0200080B0200080B0200080B0200087B
:100130000B0200080B0200080B0200080B0200086B
:100140000B0200080B0200080B0200080B0200085B
:1001500000F002F800F03CF80AA090E8000C82449D
:100160008344AAF10107DA4501D100F031F8AFF27A
:10017000090EBAE80F0013F0010F18BFFB1A43F085
:1001800001031847B80C0000D80C0000103A24BF37
:1001900078C878C1FAD8520724BF30C830C144BFEC
:1001A00004680C607047000000230024002500262E
:1001B000103A28BF78C1FBD8520728BF30C148BFCA
:1001C0000B607047002070471FB51FBD10B510BDF4
:1001D00000F0A2F81146FFF7F7FF00F01FFE00F055
:1001E000C0F803B4FFF7F2FF03BC00F08FFD00007E
:1001F0000948804709480047FEE7FEE7FEE7FEE7BB
:10020000FEE7FEE7FEE7FEE7FEE7FEE704480549F6
:10021000054A064B70470000F1080008510100082C
:100220009000002090060020900200209002002004
:10023000704700000FB4044910B503AA029800F0FB
:100240003DF810BC5DF814FB180000202DE9F041CA
:100250000E460446002020622046E168884730B3FD
:10026000252805D0D4E901219047206A401CF2E7F7
:10027000E168204600278847050018D0A5F1410015
:10028000192802D820354FF4006732462946204607
:100290002760FFF797FF40B1012804D0F61D26F034
:1002A00007060836D8E7361DD6E72846DAE7206A7B
:1002B000BDE8F0817047704770477047074B70B5D5
:1002C0000D467B4400F011F80446284600F020F863
:1002D00010B14FF0FF3070BD204670BD8F0A000096
:1002E00001694A1C02610878704700B58FB0CDE9FA
:1002F00001310021059105497944CDE903101146EA
:100300006846FFF7A3FF0FB000BD0000E5FFFFFF49
:10031000007B00F080007047754600F02BF8AE4679
:1003200005006946534620F00700854618B020B501
:10033000FFF76CFFBDE820404FF000064FF00007CC
:100340004FF000084FF0000B21F00701AC46ACE87D
:10035000C009ACE8C009ACE8C009ACE8C0098D46EA
:10036000704710B50446AFF300802046BDE810404A
:10037000FFF737BF004870473000002010B501205C
:1003800000F0CEF8482000F0C5FC00F035F94FF43D
:10039000E13000F065FC00F0DBF8012010BD00004A
:1003A00004E002E002A0FFF745FFFBE7F9E70000E9
:1003B0004275734661756C745F48616E646C6572FA
:1003C0000D0A000070470246002093680B400BB1F5
:1003D000012000E00020704702E002A0FFF72AFFA2
:1003E000FBE70000486172644661756C745F4861A8
:1003F0006E646C65720D0A0000BFFEE770477047BF
:10040000000001FF000003FF2DE9F0410246002536
:100410000026002000230024002791F803C00CF0E0
:100420000F0591F803C00CF0100CBCF1000F03D0C5
:1004300091F802C04CEA050591F800C0BCF1000F2C
:1004400031D0146800202BE04FF0010C0CFA00F3BF
:10045000B1F800C00CEA03069E4220D183004FF0A1
:100460000F0C0CFA03F7BC4305FA03FC4CEA040436
:1004700091F803C0BCF1280F06D14FF0010C0CFA23
:1004800000FCC2F814C00AE091F803C0BCF1480FA8
:1004900005D14FF0010C0CFA00FCC2F810C0401C52
:1004A0000828D1D31460B1F800C0BCF1FF0F34DDCF
:1004B000546800202EE000F1080C4FF0010808FA03
:1004C0000CF3B1F800C00CEA03069E4221D1830070
:1004D0004FF00F0C0CFA03F7BC4305FA03FC4CEA8F
:1004E000040491F803C0BCF1280F05D100F1080CF9
:1004F00008FA0CF8C2F8148091F803C0BCF1480F58
:1005000007D100F1080C4FF0010808FA0CF8C2F806
:100510001080401C0828CED35460BDE8F081000054
:1005200001464906084A926942F00102064B9A6167
:10053000064A526822F0E062044B5A601A4652683A
:100540000A435A607047000000100240000001405A
:1005500008B501213C2000F079F83F20ADF80000FB
:1005600004208DF8030069462048FFF74DFF1F2047
:10057000ADF8000004208DF8030069461C48FFF721
:1005800043FF0320ADF8000004208DF80300694606
:100590001848FFF739FF4FF41070ADF80000102035
:1005A0008DF8030003208DF8020069460F48FFF71D
:1005B0002BFF4FF40140ADF8000010208DF8030030
:1005C00003208DF8020069460948FFF71DFF4FF42C
:1005D0000670ADF8000010208DF8030003208DF8A0
:1005E000020069460348FFF70FFF08BD00100140F5
:1005F00000080140000C014010B54FF4A06000F06D
:1006000001F810BD02490143024A11607047000021
:100610000000FA050CED00E0024A0A400243024BDA
:100620001A60704780FFFF1F08ED00E029B1064AFD
:10063000D2690243044BDA6104E0034AD26982437F
:10064000014BDA61704700000010024029B1064AF0
:1006500092690243044B9A6104E0034A926982431F
:10066000014B9A6170470000001002402DE9F041F3
:1006700000210022002500230026002400278C46AC
:10068000DFF86081D8F8048008F00C0121B104295A
:1006900007D0082959D109E0DFF84C81C0F8008063
:1006A00058E0DFF84881C0F8008053E0DFF834817B
:1006B000D8F8048008F47012DFF82881D8F8048094
:1006C00008F48035920C0D2A01D0921C00E006221D
:1006D00035B9DFF81C8102FB08F8C0F8008033E070
:1006E000DFF80081D8F82C8008F48036DFF8F48039
:1006F000D8F82C8008F00F0808F1010446B9DFF89B
:10070000EC80B8FBF4F808FB02F8C0F800801BE0AE
:10071000DFF8D080D8F82C80C8F3031808F101075F
:10072000DFF8C080D8F82C80C8F3032808F1020C49
:10073000DFF8B880B8FBF7F808FB0CF8B8FBF4F862
:1007400008FB02F8C0F8008004E0DFF89C80C0F8E5
:10075000008000BF00BFDFF88C80D8F8048008F06C
:10076000F0010909DFF88C8018F80130D0F800801A
:1007700028FA03F8C0F80480DFF86880D8F804800D
:1007800008F4E061090ADFF86C8018F80130D0F84D
:10079000048028FA03F8C0F80880DFF84880D8F809
:1007A000048008F46051C90ADFF8488018F8013065
:1007B000D0F8048028FA03F8C0F80C80DFF8248011
:1007C000D8F8048008F44041890BDFF82C8018F831
:1007D0000130D0F80C80B8FBF3F8C0F81080BDE809
:1007E000F08100000010024000127A00001BB700E8
:1007F00000093D001C0000202C000020704710B5AF
:1008000000F002F810BD00000CB50020019000902F
:100810003448006840F480303249086000BF3148F5
:10082000006800F4003000900198401C019000988E
:1008300018B90198B0F5A06FF1D12A48006800F40A
:10084000003010B10120009001E0002000900098DD
:10085000012844D12448006840F010002249086073
:100860000846006820F0030008600846006840F071
:10087000020008601B4840681A4948600846406802
:1008800048600846406840F4806048600846406818
:1008900020F47C1048600846406840F488104860A6
:1008A0000846006840F08070086000BF0D4800688E
:1008B00000F000700028F9D00A48406820F00300DA
:1008C000084948600846406840F00200486000BFA0
:1008D0000448406800F00C000828F9D101E000BF8E
:1008E000FEE70CBD001002400020024070470000EF
:1008F00010B51048006840F001000E490860084635
:1009000040680D4908400B494860084600680B499B
:100910000840084908600846006820F48020086004
:100920000846406820F4FE00486000208860FFF719
:1009300066FF10BD001002400000FFF8FFFFF6FE4A
:1009400010B50121694800F0E0F818B301216748AB
:1009500000F0D8F86648007800F08000D0B1644814
:10096000007820F01000624908700846007800F016
:100970000F0020B90846007840F0400008705C483D
:10098000007800F00F00082805DA59480078401C6C
:10099000574908700AE05648007820F08000544912
:1009A00008700846007800F0F000087008214F48F1
:1009B00000F0ABF8002816D008214C4800F0A2F84F
:1009C0004C48006800F4807070B10221474800F084
:1009D000B6F80021454800F0BFF84548007840F0DF
:1009E00010004349087080E040483C30008842498C
:1009F000088000213D4800F0A2F83D48007800F052
:100A00001000102871D13A48007800F0800080284A
:100A100044D139480088B0F5967F0DDD364800880E
:100A2000B0F5487F08DA354800684000334908606F
:100A300008460068086052E02F480088B0F5966FBD
:100A40000FDD2D480088B0F5E16F0ADA2B48006809
:100A500040002A4908600846006840F0010008602C
:100A60003DE025480088B0F5FA6F38DD224800885F
:100A700040F62821884232DA21480078401C20497B
:100A8000087008460078FF2801DBFF20087018482E
:100A9000007800F0F0001649087020E01648008841
:100AA00041F2680188421ADD1348008841F25C2156
:100AB000884214DA0E48007840F080000C49087033
:100AC00000200F49087001221146084800F02EF856
:100AD0000121064800F016F8002008490860044883
:100AE000007820F010000249087010BD0008004096
:100AF00004000020080C014006000020080000202F
:100B00000C000020CA430282704730B50246002024
:100B100000230024158A05EA0103958905EA0104EA
:100B200013B10CB1012000E0002030BD1AB183895F
:100B30000B43838102E083898B43838170470A469C
:100B40000021018C4FF6FF5319404FF6FF7303EA63
:100B500002231943018470478184704701F40072B5
:100B6000B2F5007F00D100BFCA430280704721B1B7
:100B7000828942F40052828104E082894DF6FF733B
:100B80001A408281704700002DE9F04786B0054683
:100B90000E460024A24600BFA1460027B08900B13E
:100BA00000BF2F462C8A4CF6FF700440F0880443A7
:100BB0002C82AC894EF6F3100440B088318908438A
:100BC000718908430443AC81AC8A4FF6FF4004406E
:100BD000B0890443AC8201A8FFF748FD1F48874253
:100BE00002D1DDF810A001E0DDF80CA0A88900F426
:100BF000004040B10AEBCA0000EB0A10316849001E
:100C0000B0FBF1F807E00AEBCA0000EB0A1031680C
:100C10008900B0FBF1F86420B8FBF0F00401200972
:100C2000642101FB1089A88900F4004040B1322002
:100C300000EBC900B0FBF1F000F00700044308E04E
:100C4000322000EB09106421B0FBF1F000F00F003E
:100C500004432C8106B0BDE8F08700000038014055
:100C600010B586B0044601213020FFF7EFFC0121CA
:100C70000805FFF7DBFC4FF48050ADF81400182096
:100C80008DF8170003208DF8160005A91348FFF70B
:100C9000BBFB0420ADF8140018208DF8170005A93F
:100CA0000F48FFF7B1FB01940020ADF80800ADF844
:100CB0000A00ADF80C00ADF810000C20ADF80E00E5
:100CC00001A90848FFF760FF40210748FFF746FFEA
:100CD00001210448FFF74BFF06B010BD0010014092
:100CE00000140140005000400044004004E002E0D5
:100CF00002A0FFF79FFAFBE7F9E700005573616771
:100D0000654661756C740D0A00000000014600BF65
:100D1000002070474FF0E021096921F004014FF0F5
:100D2000E0221161C21700EB5272C2F3C702074BF7
:100D30001A701946097801EB4102C2EBC1114FF656
:100D4000FF7202EAC101024A1180704712000020BE
:100D50001400002010B50A46002106E04B1C99B291
:100D60004FF6FF73994200DB05E0054B1B8803F04B
:100D70008003002BF2D000BFC3B2014CA38010BD92
:100D80000050004070B5002402212248FFF71BFBF1
:100D9000054604212048FFF716FB45EA40050221DD
:100DA0001D48FFF710FB45EA800504211948FFF7AD
:100DB0000AFB45EAC000044308211748FFF703FB7C
:100DC000054601211448FFF7FEFA45EA40050821CF
:100DD0001048FFF7F8FA45EA800501210D48FFF7B2
:100DE000F2FA45EAC00044EA001420210A48FFF75D
:100DF000EAFA054610210848FFF7E5FA45EA4005FA
:100E000010210448FFF7DFFA45EA800044EA002495
:100E1000204670BD000801400010014000214FF045
:100E20000060FFF7F9FBFFF7A9FA03E0FFF7AAFF5D
:100E300001490860FAE70000000000205C0E00088D
:100E400000000020300000008C0100088C0E00081B
:100E50003000002060060000A8010008000000002B
:100E600000000000000000000000FF000000000083
:100E70000000000000000000000000000102030468
:0C0E80000102030406070809020406082A
:04000005080001519D
:00000001FF
