:020000040800F2
:10000000C0060020F50100080507000809060008E1
:1000100001070008B9040008190F000800000000DB
:1000200000000000000000000000000011090008AE
:10003000DD040008000000003D0700082F0A00084A
:100040000F0200080F0200080F0200080F0200084C
:100050000F0200080F0200080F0200080F0200083C
:100060000F0200080F0200080F0200080F0200082C
:100070000F0200080F0200080F0200080F0200081C
:100080000F0200080F0200080F0200080F0200080C
:100090000F0200080F0200080F0200080F020008FC
:1000A0000F020008810A00080F0200080F02000872
:1000B000B90A00080F020008650B00080F020008CB
:1000C0000F0200080F0200080F0200080F020008CC
:1000D0000F0200080F0200080F0200080F020008BC
:1000E0000F0200080F0200080F02000800000000C5
:1000F0000000000000000000000000000000000000
:1001000000000000000000000F0200080F020008BD
:100110000F0200080F0200080F0200080F0200087B
:100120000F0200080F0200080F0200080F0200086B
:100130000F0200080F0200080F0200080F0200085B
:100140000F0200080F0200080F0200080F0200084B
:1001500000F002F800F03FF80AA090E8000C82449A
:100160008344AAF10107DA4501D100F034F8AFF277
:10017000090EBAE80F0013F0010F18BFFB1A43F085
:10018000010318477C0F00009C0F0000103A24BFA9
:1001900078C878C1FAD8520724BF30C830C144BFEC
:1001A00004680C607047000000230024002500262E
:1001B000103A28BF78C1FBD8520728BF30C148BFCA
:1001C0000B607047782900F07780002070471FB5DA
:1001D0001FBD10B510BD00F02FF91146FFF7F7FF56
:1001E00000F054FF00F04DF903B4FFF7F2FF03BC39
:1001F00000F0A2FE0948804709480047FEE7FEE7F5
:10020000FEE7FEE7FEE7FEE7FEE7FEE7FEE7FEE7C6
:1002100004480549054A064B70470000310A0008AA
:1002200051010008C0000020C0060020C0020020CC
:10023000C0020020704700000FB4044910B503AAA3
:10024000029800F0C3F810BC5DF814FB1C000020FD
:100250002DE9F0410E460446002020622046E16868
:10026000884730B3252805D0D4E901219047206A7A
:10027000401CF2E7E168204600278847050018D0B7
:10028000A5F14100192802D820354FF40067324605
:10029000294620462760FFF795FF40B1012804D08A
:1002A000F61D26F007060836D8E7361DD6E728469D
:1002B000DAE7206ABDE8F08170B504460D462146B4
:1002C0001068AFF300802188090502D50F4A7A44EF
:1002D00002E00E4A7A440E32002104F1240305E0C4
:1002E00000F00F060009965D5E54491C0028F7D106
:1002F00020780023000704D5702D02D009B1022315
:1003000011322046BDE8704000F006B8060E00002D
:1003100070477047704770472DE9F0470D46994682
:100320009246044600F124080168880604D5E06975
:1003300021F01001216000E00120A84201DD471BEF
:1003400000E00027A1697A1902EB0900081AA061F0
:100350002078C00602D42046AFF30080002608E0D3
:10036000D4E901211AF806009047206A401C761C47
:1003700020624E45F4DB2078C0060AD52046AFF354
:10038000008006E0D4E9012130209047206A401C1B
:100390002062381EA7F10107F4DC07E0D4E901214F
:1003A00018F805009047206A401C2062281EA5F11D
:1003B0000105F3DC2046AFF300802078000602D56B
:1003C0000220BDE8F0870120FBE70000074B70B575
:1003D0000D467B4400F01DF80446284600F008F85E
:1003E00010B14FF0FF3070BD204670BDE70B00002C
:1003F000007B00F080007047004870475C000020E0
:10040000000001FF000003FF01694A1C0261087837
:10041000704700B58FB0CDE9013100210591054944
:100420007944CDE9031011466846FFF711FF0FB07C
:1004300000BD0000E5FFFFFF7546FFF7DDFFAE469C
:1004400005006946534620F00700854618B020B5E0
:10045000FFF7DEFEBDE820404FF000064FF000073A
:100460004FF000084FF0000B21F00701AC46ACE85C
:10047000C009ACE8C009ACE8C009ACE8C0098D46C9
:10048000704710B50446AFF300802046BDE8104029
:10049000FFF7AABE10B5012000F0C6F8482000F012
:1004A0004FFD00F030F94FF4E13000F0EFFC00F0C8
:1004B000D3F8012010BD000004E002E002A0FFF725
:1004C000BBFEFBE7F9E700004275734661756C748B
:1004D0005F48616E646C65720D0A000070472DE91B
:1004E000F0410246002500260020002300240027BA
:1004F00091F803C00CF00F0591F803C00CF0100C3C
:10050000BCF1000F03D091F802C04CEA050591F848
:1005100000C0BCF1000F31D0146800202BE04FF078
:10052000010C0CFA00F3B1F800C00CEA03069E427D
:1005300020D183004FF00F0C0CFA03F7BC4305FAEF
:1005400003FC4CEA040491F803C0BCF1280F06D167
:100550004FF0010C0CFA00FCC2F814C00AE091F84C
:1005600003C0BCF1480F05D14FF0010C0CFA00FCA0
:10057000C2F810C0401C0828D1D31460B1F800C0E4
:10058000BCF1FF0F34DD546800202EE000F1080CB0
:100590004FF0010808FA0CF3B1F800C00CEA0306AA
:1005A0009E4221D183004FF00F0C0CFA03F7BC439D
:1005B00005FA03FC4CEA040491F803C0BCF1280FCF
:1005C00005D100F1080C08FA0CF8C2F8148091F873
:1005D00003C0BCF1480F07D100F1080C4FF001082F
:1005E00008FA0CF8C2F81080401C0828CED35460DA
:1005F000BDE8F0810246002093680B400BB101205A
:1006000000E000207047000002E002A0FFF714FEA7
:10061000FBE70000486172644661756C745F486175
:100620006E646C65720D0A0001464906084A9269BB
:1006300042F00102064B9A61064A526822F0E062DB
:10064000044B5A601A4652680A435A6070470000C9
:10065000001002400000014008B501213C2000F0DC
:100660007FF83F20ADF8000004208DF803006946B4
:100670002048FFF734FF1F20ADF8000004208DF85C
:10068000030069461C48FFF72AFF0320ADF800006D
:1006900004208DF8030069461848FFF720FF4FF447
:1006A0001070ADF8000010208DF8030003208DF8C5
:1006B000020069460F48FFF712FF4FF40140ADF802
:1006C000000010208DF8030003208DF80200694619
:1006D0000948FFF704FF4FF40670ADF80000102042
:1006E0008DF8030003208DF8020069460348FFF7E8
:1006F000F6FE08BD0010014000080140000C01405A
:1007000000BFFEE7704710B54FF4A06000F002F89C
:1007100010BD000002490143024A11607047000009
:100720000000FA050CED00E0024A0A400243024BC9
:100730001A60704780FFFF1F08ED00E0704700005F
:1007400029B1064AD2690243044BDA6104E0034A44
:10075000D2698243014BDA61704700000010024009
:1007600029B1064A92690243044B9A6104E0034AA4
:1007700092698243014B9A61704700000010024069
:100780002DE9F0410021002200250023002600244D
:1007900000278C46DFF86081D8F8048008F00C014F
:1007A00021B1042907D0082959D109E0DFF84C818B
:1007B000C0F8008058E0DFF84881C0F8008053E0BE
:1007C000DFF83481D8F8048008F47012DFF828814B
:1007D000D8F8048008F48035920C0D2A01D0921CC0
:1007E00000E0062235B9DFF81C8102FB08F8C0F8EA
:1007F000008033E0DFF80081D8F82C8008F48036E0
:10080000DFF8F480D8F82C8008F00F0808F1010414
:1008100046B9DFF8EC80B8FBF4F808FB02F8C0F842
:1008200000801BE0DFF8D080D8F82C80C8F30318D4
:1008300008F10107DFF8C080D8F82C80C8F303283E
:1008400008F1020CDFF8B880B8FBF7F808FB0CF8E9
:10085000B8FBF4F808FB02F8C0F8008004E0DFF809
:100860009C80C0F8008000BF00BFDFF88C80D8F803
:10087000048008F0F0010909DFF88C8018F80130D5
:10088000D0F8008028FA03F8C0F80480DFF8688008
:10089000D8F8048008F4E061090ADFF86C8018F8E1
:1008A0000130D0F8048028FA03F8C0F80880DFF897
:1008B0004880D8F8048008F46051C90ADFF84880FD
:1008C00018F80130D0F8048028FA03F8C0F80C803A
:1008D000DFF82480D8F8048008F44041890BDFF861
:1008E0002C8018F80130D0F80C80B8FBF3F8C0F871
:1008F0001080BDE8F08100000010024000127A0074
:10090000001BB70000093D0020000020300000203F
:10091000704710B500F002F810BD00000CB50020C3
:10092000019000903448006840F4803032490860FB
:1009300000BF3148006800F4003000900198401C6E
:100940000190009818B90198B0F5A06FF1D12A482C
:10095000006800F4003010B10120009001E0002098
:1009600000900098012844D12448006840F010000D
:10097000224908600846006820F003000860084625
:10098000006840F0020008601B4840681A4948604F
:100990000846406848600846406840F48060486007
:1009A0000846406820F47C1048600846406840F4DF
:1009B000881048600846006840F08070086000BFFA
:1009C0000D48006800F000700028F9D00A4840681F
:1009D00020F00300084948600846406840F00200E3
:1009E000486000BF0448406800F00C000828F9D1B6
:1009F00001E000BFFEE70CBD0010024000200240F5
:100A000070B506460D4600240821304600F08CF9EA
:100A1000304600F08CF94419B4F5803F01D3A4F5B9
:100A20008034A1B2304600F0ACF9204670BD70476A
:100A300010B51048006840F001000E4908600846F3
:100A400040680D4908400B494860084600680B495A
:100A50000840084908600846006820F480200860C3
:100A60000846406820F4FE00486000208860FFF7D8
:100A700050FF10BD001002400000FFF8FFFFF6FE1F
:100A800010B50121054800F055F930B101210348A6
:100A900000F04AF902A0FFF7CFFB10BD002C014087
:100AA00054494D315F55505F49525148616E646CF5
:100AB00065720D0A0000000010B50821C80600F09C
:100AC00039F9002847D00821C80600F02DF909217E
:100AD0008807FFF795FF01201F49087048701F48DD
:100AE0000078401CC0B21D4908700A2807DD0020AC
:100AF000087001201849887001211748C1701848F2
:100B000001780078401C164A1070632923DB00200E
:100B10001146087001201049087101210E484171E9
:100B20008079401C0C498871084680790A2803DBCB
:100B3000002088710120C87107480089401C0649BF
:100B40000881084600894989884204DB002002495F
:100B500008810120087310BD4C0000201300002004
:100B60001200002010B50121694800F0E3F818B325
:100B70000121674800F0D8F86648007800F080004E
:100B8000D0B16448007820F010006249087008462F
:100B9000007800F00F0020B90846007840F04000CF
:100BA00008705C48007800F00F00082805DA594802
:100BB0000078401C574908700AE05648007820F039
:100BC0008000544908700846007800F0F000087072
:100BD00008214F4800F0AEF8002816D008214C48F4
:100BE00000F0A2F84C48006800F4807070B1022157
:100BF000474800F0B9F80021454800F0C4F84548DE
:100C0000007840F010004349087080E040483C30D4
:100C100000884249088000213D4800F0A5F83D4881
:100C2000007800F01000102871D13A48007800F0E8
:100C30008000802844D139480088B0F5967F0DDDCA
:100C400036480088B0F5487F08DA3548006840002B
:100C50003349086008460068086052E02F48008861
:100C6000B0F5966F0FDD2D480088B0F5E16F0ADA18
:100C70002B48006840002A4908600846006840F098
:100C8000010008603DE025480088B0F5FA6F38DDC6
:100C90002248008840F62821884232DA214800782C
:100CA000401C2049087008460078FF2801DBFF201F
:100CB00008701848007800F0F0001649087020E02D
:100CC0001648008841F2680188421ADD13480088FE
:100CD00041F25C21884214DA0E48007840F080002E
:100CE0000C49087000200F4908700122114608487D
:100CF00000F031F80121064800F016F800200849FC
:100D000008600448007820F010000249087010BD07
:100D10000008004004000020080C014006000020EC
:100D2000080000200C000020CA43028270470146E0
:100D3000888C704730B50246002000230024158AB5
:100D400005EA0103958905EA010413B10CB10120FC
:100D500000E0002030BD1AB183890B43838102E09B
:100D600083898B43838170470A460021018C4FF6AB
:100D7000FF5319404FF6FF7303EA0223194301841E
:100D80007047818770478184704701F40072B2F523
:100D9000007F00D100BFCA430280704721B1828921
:100DA00042F40052828104E082894DF6FF731A40BA
:100DB000828170472DE9F04786B005460E46002433
:100DC000A24600BFA1460027B08900B100BF2F4650
:100DD0002C8A4CF6FF700440F08804432C82AC89C6
:100DE0004EF6F3100440B0883189084371890843F6
:100DF0000443AC81AC8A4FF6FF400440B089044301
:100E0000AC8201A8FFF7BCFC1F48874202D1DDF885
:100E100010A001E0DDF80CA0A88900F4004040B16A
:100E20000AEBCA0000EB0A1031684900B0FBF1F888
:100E300007E00AEBCA0000EB0A1031688900B0FB3A
:100E4000F1F86420B8FBF0F004012009642101FBF3
:100E50001089A88900F4004040B1322000EBC9009D
:100E6000B0FBF1F000F00700044308E0322000EB93
:100E700009106421B0FBF1F000F00F0004432C8155
:100E800006B0BDE8F08700000038014010B586B01C
:100E9000044601213020FFF763FC01210805FFF71C
:100EA0004FFC4FF48050ADF8140018208DF8170057
:100EB00003208DF8160005A91348FFF710FB042046
:100EC000ADF8140018208DF8170005A90F48FFF79A
:100ED00006FB01940020ADF80800ADF80A00ADF85B
:100EE0000C00ADF810000C20ADF80E0001A9084868
:100EF000FFF760FF40210748FFF747FF0121044843
:100F0000FFF74CFF06B010BD001001400014014077
:100F1000005000400044004004E002E002A0FFF75F
:100F20008BF9FBE7F9E7000055736167654661756A
:100F30006C740D0A00000000014600BF00207047DD
:100F40004FF0E021096921F004014FF0E022116126
:100F5000C21700EB5272C2F3C702074B1A70194650
:100F6000097801EB4102C2EBC1114FF6FF7202EAB0
:100F7000C101024A118070471400002016000020B1
:100F800001460D4A12884A434FF0E0235A6100227D
:100F90009A6101221A6100BF4FF0E022106900F04F
:100FA00001021AB100F48032002AF5D000224FF07D
:100FB000E0231A619A6170471600002010B50A46B6
:100FC000002106E04B1C99B24FF6FF73994200DBFB
:100FD00005E0054B1B8803F08003002BF2D000BF17
:100FE000C3B2014CA38010BD0050004070B5002476
:100FF00002212448FFF7FEFA054604212248FFF7A4
:10100000F9FA45EA400502211F48FFF7F3FA45EADD
:10101000800504211B48FFF7EDFA45EAC0000443B0
:1010200008211948FFF7E6FA054601211648FFF79F
:10103000E1FA45EA400508211248FFF7DBFA45EAE4
:10104000800501210F48FFF7D5FA45EAC00044EAC0
:10105000001420210C48FFF7CDFA054610210A485C
:10106000FFF7C8FA45EA400510210648FFF7C2FA23
:1010700045EA800044EA002440F2FF7044402046E4
:1010800070BD0000000801400010014000214FF039
:101090000060FFF749FBFFF7FDF910E0FFF7A6FF3F
:1010A000074908604FF47A70FFF76AFF0448016847
:1010B00004A0FFF7C1F80749096948688047EDE7D0
:1010C000000000206B6579203D20307825780D0ADE
:1010D0000000000034000020303132333435363720
:1010E000383941424344454640305800303132336C
:1010F000343536373839616263646566403078006C
:101100002011000800000020340000008C010008BD
:1011100054110008340000208C060000A8010008CB
:101120000000000000000000000000000000FF00C0
:1011300000000000000000000000000000000000AF
:10114000000000000102030401020304060708096D
:041150000204060887
:04000005080001519D
:00000001FF
